:100000000C9434000C9451000C9451000C94510049
:100010000C9451000C9451000C9451000C9451001C
:100020000C9451000C9451000C9451000C942D012F
:100030000C9451000C9451000C9451000C945100FC
:100040000C9451000C9451000C9451000C945100EC
:100050000C9451000C9451000C9451000C944C01E0
:100060000C9451000C94510011241FBECFEFD8E026
:10007000DEBFCDBF11E0A0E0B1E0E8E3F3E002C0F5
:1000800005900D92A230B107D9F721E0A2E0B1E0CE
:1000900001C01D92A331B207E1F70E9422010C9426
:1000A0009A010C940000EFE6F0E080818D7F808360
:1000B00081E080930D0110920401109210010895C7
:1000C0001092120110920E0181E080930401809140
:1000D0006F00826080936F0080918100887F8093A1
:1000E00081001092840010928500809181008460CC
:1000F00080938100809110018823E1F31092100118
:1001000080918100887F8093810080916F00826060
:1001100080936F0080B7877F80BF16BC10928400E9
:1001200010928500559A289A85B5826085BD809188
:1001300081008460809381002898809184008C30B5
:10014000E0F385B5887F85BD55982998089510926C
:10015000C50087E68093C400E0ECF0E080818D7FED
:10016000808386E08093C20088E08093C100089578
:100170001092030181E080930D011092040110920E
:10018000020110920F01E5E0F1E083E590E0918338
:10019000808380E690E09383828389E791E0958372
:1001A00084838FE891E09783868384B5826584BDDC
:1001B00085B5886085BD8AE187BD88BD559A279839
:1001C000209A2898E0E8F0E08081826480838FEFB5
:1001D00080938900809388008BE080BF82E08093C9
:1001E0006F007894219A089580910301813031F055
:1001F000B0F0823041F0833069F0089580910401BD
:10020000813069F40EC080910E01823061F081303E
:1002100041F40BC080910D01882339F004C081E0C6
:10022000089582E0089583E0089580E00895E091C4
:100230000301F0E0EE0FFF1FEB5FFE4F0190F08136
:10024000E02D09940E94B8000E94A7000E94F400CB
:10025000809303010E941701F9CF1F920F920FB6EE
:100260000F9211248F93EF93FF93EFE6F0E08081DC
:100270008D7F8083E1E8F0E08081887F8083109229
:100280000F0181E080931001FF91EF918F910F900A
:100290000FBE0F901F9018951F920F920FB60F92DE
:1002A00011248F939F9380918400893228F080914C
:1002B0000F018F5F80930F0180910F01833059F4FC
:1002C00081E080930201809184008093000195B1C8
:1002D00082E0892785B99F918F910F900FBE0F9073
:1002E0001F9018959091C00095FFFCCF8093C60099
:1002F000089580B7886080BF80911001813029F413
:1003000080930E018FEF0C94720180910201813075
:1003100029F41092020182E080930E0108958091E9
:100320001001813031F4809100010E94720110921D
:080330000D010895F894FFCFC0
:02033800610062
:00000001FF
