:100000000C947A000C948E000C948E000C948E004C
:100010000C948E000C948E000C948E000C948E0028
:100020000C948E000C948E000C948E000C948E0018
:100030000C948E000C948E000C948E000C948E0008
:100040000C948E000C948E000C948E000C948E00F8
:100050000C94E9000C948E000C948E000C948E008D
:100060000C948E000C948E000C948E000C948E00D8
:100070000C948E000C948E000C948E000C948E00C8
:100080000C948E000C948E000C948E000C948E00B8
:100090000C948E000C948E000C948E000C948E00A8
:1000A0000C948E000C948E000C948E000C948E0098
:1000B0000C948E000C948E000C948E000C948E0088
:1000C0000C948E000C948E000C948E000C948E0078
:1000D0000C948E000C948E000C948E000C948E0068
:1000E0000C948E000C9490000C9496000C94970045
:1000F0000C94980011241FBECFEFD1E2DEBFCDBF1C
:1001000000E00CBF22E0A0E0B2E001C01D92AB30E5
:10011000B207E1F70E94E0000C94FB000C94000091
:1001200085B5826085BD10920A02089508950895EC
:10013000089510920002E1E0F2E086E990E09183F8
:10014000808380E990E09383828387E990E09583C0
:10015000848388E990E09783868384B5826584BD33
:1001600085B5886085BD88E187BD88BD9D9A279A41
:10017000089580910002813021F078F0823031F0D2
:10018000089580910A02882351F007C080910902E6
:10019000813039F0882339F002C081E0089582E08F
:1001A000089583E0089580E00895E0910002F0E072
:1001B000EE0FFF1FEF5FFD4F0190F081E02D1994CE
:1001C0000E9499000E94B900809300020E94D5000D
:1001D000F9CF1F920F920FB60F9211248F9385B50E
:1001E000887F85BD81E080930A028F910F900FBEBA
:0A01F0000F901F901895F894FFCFB0
:00000001FF
