:100000000C947A000C949B000C949B000C949B0025
:100010000C949B000C949B000C949B000C949B00F4
:100020000C949B000C949B000C949B000C949B00E4
:100030000C949B000C949B000C949B000C949B00D4
:100040000C949B000C9470010C949B000C949B00EE
:100050000C949B000C949B000C949B000C949B00B4
:100060000C949B000C949B000C949B000C949B00A4
:100070000C9493010C949B000C949B000C949B009B
:100080000C949B000C949B000C949B000C949B0084
:100090000C949B000C949B000C949B000C949B0074
:1000A0000C949B000C949B000C949B000C949B0064
:1000B0000C949B000C949B000C949B000C949B0054
:1000C0000C949B000C949B000C949B000C949B0044
:1000D0000C949B000C949B000C949B000C949B0034
:1000E0000C949B000C949D000C94B8010C94AA00F5
:1000F0000C94B80011241FBECFEFD1E2DEBFCDBFFC
:1001000000E00CBF12E0A0E0B2E0E2E8F3E000E0C3
:100110000BBF02C007900D92A230B107D9F722E0C1
:10012000A2E0B2E001C01D92A231B207E1F70E9445
:1001300065010C94BF010C940000EFE6F0E08081B3
:100140008D7F808381E080930D02109204021092D3
:100150001002089580911002813039F080910202DE
:10016000813029F41092020282E080930E020895F9
:100170001092110210920E0281E08093040280918D
:100180006F00826080936F0016BC10928400109202
:100190008500279A139885B5826085BD809181007E
:1001A000856080938100809184008330E0F385B581
:1001B000887F85BD2798139A08951092C50080E125
:1001C0008093C400E0ECF0E080818260808386E070
:1001D0008093C20088E08093C100089510920302CA
:1001E00081E080930D02109204021092020210929C
:1001F0000F02E5E0F2E08DE990E09183808388EBE7
:1002000090E0938382838AEA90E09583848388EBED
:1002100091E09783868384B5826584BD85B58860C7
:1002200085BD88E187BD88BD9D9A279A2F980B9A36
:100230001398E0E8F0E080818264808384EA90E0B3
:1002400090938900809388008BE480BFEBE7F0E017
:10025000808180648083EAE7F0E080818F7780830B
:10026000ECE7F0E08081816080837894089580914C
:100270000302813031F0B0F0823041F0833069F018
:10028000089580910402813069F40EC080910E02BD
:10029000823061F0813041F40BC080910D028823DF
:1002A00039F004C081E0089582E0089583E0089564
:1002B00080E00895E0910302F0E0EE0FFF1FEB5F96
:1002C000FD4F0190F081E02D19940E94EE000E94F4
:1002D000DD000E943701809303020E945A01F9CF8A
:1002E0001F920F920FB60F9211240BB60F928F939D
:1002F000EF93FF93EFE6F0E080818D7F8083E1E86C
:10030000F0E08081887F808310920F0281E08093EB
:100310001002FF91EF918F910F900BBE0F900FBEC7
:100320000F901F9018951F920F920FB60F921124E5
:100330008F9380910F028F5F80930F0280910F0245
:10034000843048F081E080930202809184008093A1
:10035000000210920F028F910F900FBE0F901F900E
:1003600018959091C00095FFFCCF8093C60008952A
:10037000809100020E94B10110920D020895F8943C
:02038000FFCFAD
:02038200610018
:00000001FF
