:100000000C9434000C9451000C9451000C94510049
:100010000C9451000C9451000C9451000C9451001C
:100020000C9451000C9451000C9451000C940A0152
:100030000C9451000C9451000C9451000C945100FC
:100040000C9451000C9451000C9451000C945100EC
:100050000C9451000C9451000C9451000C94290103
:100060000C9451000C94510011241FBECFEFD8E026
:10007000DEBFCDBF11E0A0E0B1E0EAEEF2E002C0E9
:1000800005900D92A230B107D9F721E0A2E0B1E0CE
:1000900001C01D92A331B207E1F70E94FF000C944A
:1000A00073010C940000EFE6F0E080818D7F808387
:1000B00081E080930D0110920401109210010895C7
:1000C0001092120110920E0181E080930401809140
:1000D0006F00826080936F0080B7877F80BF16BCFF
:1000E0001092840010928500559A289A85B58260F6
:1000F00085BD8091810084608093810028988091E3
:100100008400893CE0F385B5887F85BD55980895C6
:100110001092C50087E68093C400E0ECF0E0808197
:100120008D7F808386E08093C20088E08093C10049
:1001300008951092030181E080930D011092040153
:100140001092020110920F01E5E0F1E083E590E0EA
:100150009183808380E690E09383828382E591E0BF
:100160009583848388E691E09783868384B582654E
:1001700084BD85B5886085BD88E187BD88BD559AF9
:100180002798209A2898E0E8F0E0808182648083B4
:1001900084EA80938800109289008BE080BF789475
:1001A000089580910301813031F0B0F0823041F048
:1001B000833069F0089580910401813069F40EC0A4
:1001C00080910E01823061F0813041F40BC080914A
:1001D0000D01882339F004C081E0089582E008957C
:1001E00083E0089580E00895E0910301F0E0EE0FD0
:1001F000FF1FEB5FFE4F0190F081E02D09940E94FC
:1002000099000E9488000E94D100809303010E94FF
:10021000F400F9CF1F920F920FB60F9211248F9313
:10022000EF93FF93EFE6F0E080818D7F8083E1E83C
:10023000F0E08081887F808310920F0181E08093BD
:100240001001FF91EF918F910F900FBE0F901F90B3
:1002500018951F920F920FB60F9211248F938091D1
:100260008400803128F080910F018F5F80930F010F
:1002700080910F018A3049F481E0809302018091DE
:1002800084008093000110920F018F910F900FBE98
:100290000F901F9018959091C00095FFFCCF809310
:1002A000C600089580B7886080BF809110018130BA
:1002B00029F480930E018FEF0C944B018091020181
:1002C000813029F41092020182E080930E0108959A
:1002D00080911001813031F4809100010E944B0126
:0A02E00010920D010895F894FFCF6D
:0202EA006100B1
:00000001FF
