:100000000C947A000C948E000C948E000C948E004C
:100010000C948E000C948E000C948E000C948E0028
:100020000C948E000C948E000C948E000C948E0018
:100030000C948E000C948E000C948E000C948E0008
:100040000C948E000C948E000C948E000C948E00F8
:100050000C94F2000C948E000C948E000C948E0084
:100060000C948E000C948E000C948E000C948E00D8
:100070000C948E000C948E000C948E000C948E00C8
:100080000C948E000C948E000C948E000C948E00B8
:100090000C948E000C948E000C948E000C948E00A8
:1000A0000C948E000C948E000C948E000C948E0098
:1000B0000C948E000C948E000C948E000C948E0088
:1000C0000C948E000C948E000C948E000C948E0078
:1000D0000C948E000C948E000C948E000C948E0068
:1000E0000C948E000C9490000C9491000C9492004F
:1000F0000C94930011241FBECFEFD1E2DEBFCDBF21
:1001000000E00CBF22E0A0E0B2E001C01D92AC30E4
:10011000B207E1F70E94E9000C9404010C9400007E
:1001200008950895089585B5826085BD10920B02EB
:1001300008951092000210920902E1E0F2E080E9D5
:1001400090E09183808383E990E09383828381E9C7
:1001500090E09583848382E990E09783868384B5D9
:10016000826584BD85B5886085BD88E187BD88BD11
:100170009D9A279A089580910002813031F0B0F065
:10018000823041F0833069F0089580910B0288231A
:1001900079F00CC080910A02813061F0882361F00F
:1001A00007C080910902882339F004C081E00895D6
:1001B00082E0089583E0089580E00895E0910002D0
:1001C000F0E0EE0FFF1FEF5FFD4F0190F081E02D9B
:1001D00019940E9499000E94BB00809300020E9423
:1001E000DE00F9CF1F920F920FB60F9211248F935A
:1001F00085B5887F85BD81E080930B028F910F903C
:0C0200000FBE0F901F901895F894FFCFD0
:00000001FF
