:100000000C947A000C949B000C949B000C949B0025
:100010000C949B000C949B000C949B000C949B00F4
:100020000C949B000C949B000C949B000C949B00E4
:100030000C949B000C949B000C949B000C949B00D4
:100040000C949B000C9436010C949B000C949B0028
:100050000C949B000C949B000C949B000C949B00B4
:100060000C949B000C949B000C949B000C949B00A4
:100070000C9459010C949B000C949B000C949B00D5
:100080000C949B000C949B000C949B000C949B0084
:100090000C949B000C949B000C949B000C949B0074
:1000A0000C949B000C949B000C949B000C949B0064
:1000B0000C949B000C949B000C949B000C949B0054
:1000C0000C949B000C949B000C949B000C949B0044
:1000D0000C949B000C949B000C949B000C949B0034
:1000E0000C949B000C94B6010C9499010C9484011F
:1000F0000C94B00111241FBECFEFD1E2DEBFCDBF03
:1001000000E00CBF12E0A0E0B2E0E2EBF3E000E0C0
:100110000BBF02C007900D92A230B107D9F722E0C1
:10012000A2E0B2E001C01D92A231B207E1F70E9445
:100130002B010C94D7010C9400001092C50080E1B3
:100140008093C400E0ECF0E080818260808386E0F0
:100150008093C20088E08093C1000895109203024A
:1001600081E080930D02109204021092020210921C
:100170001002E5E0F2E084E891E09183808386EB71
:1001800091E09383828389E991E09583848380EB76
:1001900091E09783868384B5826584BD85B5886048
:1001A00085BD88E187BD88BD9D9A279A2F980B9AB7
:1001B00082B1887082B9E0E8F0E080818264808357
:1001C00084EA90E0909389008093880080B78360F0
:1001D00080BFEBE7F0E0808180648083EAE7F0E0B5
:1001E00080818F778083ECE7F0E08081826080837C
:1001F00082E080936F0078940895809103028130AB
:1002000031F0B0F0823041F0833069F00895809190
:100210000402813069F40EC080910E02823061F0D8
:10022000813041F40BC080910D02882339F004C065
:1002300081E0089582E0089583E0089580E00895C4
:10024000E0910302F0E0EE0FFF1FEB5FFD4F019026
:10025000F081E02D19940E94AE000E949D000E9442
:10026000FD00809303020E942001F9CF1F920F929C
:100270000FB60F9211240BB60F928F93EF93FF934B
:10028000E1E8F0E08081887F80831092840081E043
:1002900080930F02EFE6F0E080818D7F8083FF91F5
:1002A000EF918F910F900BBE0F900FBE0F901F908C
:1002B00018951F920F920FB60F9211248F93809171
:1002C00010028F5F80931002843088F0809181004B
:1002D000887F8093810081E0809302028091840076
:1002E000809300021092100280B7877F80BF8F91A9
:1002F0000F900FBE0F901F9018958093C6008091AD
:10030000C00086FFFCCF0895EFE6F0E080818D7F8E
:10031000808380B7877F80BF8AE50E947D0181E06E
:1003200080930D021092040210920F0210920202AA
:100330000895CF93C0910F02C13031F484E50E943B
:100340007D01C0930E020AC080910202813031F417
:1003500082E70E947D0182E080930E02CF91089592
:1003600083E60E947D0110920D02089583E50E94AC
:100370007D0182E080936F0016BC279A85B582606C
:1003800085BD1092110210928400809181008560D9
:1003900080938100809184008330E0F380B788608F
:1003A00080BF10920E0281E0809304020895F894B9
:0203B000FFCF7D
:0203B2006100E8
:00000001FF
