:100000000C947A000C949B000C949B000C949B0025
:100010000C949B000C949B000C949B000C949B00F4
:100020000C949B000C949B000C949B000C949B00E4
:100030000C949B000C949B000C949B000C949B00D4
:100040000C949B000C9431010C949B000C949B002D
:100050000C949B000C949B000C949B000C949B00B4
:100060000C949B000C949B000C949B000C949B00A4
:100070000C94BC010C949B000C949B000C949B0072
:100080000C949B000C949B000C949B000C949B0084
:100090000C949B000C949B000C949B000C949B0074
:1000A0000C949B000C949B000C949B000C949B0064
:1000B0000C949B000C949B000C949B000C949B0054
:1000C0000C949B000C949B000C949B000C949B0044
:1000D0000C949B000C949B000C949B000C949B0034
:1000E0000C949B000C948B010C945E010C94730196
:1000F0000C94910111241FBECFEFD1E2DEBFCDBF22
:1001000000E00CBF12E0A0E0B2E0ECE0F4E000E0C0
:100110000BBF02C007900D92A230B107D9F722E0C1
:10012000A2E0B2E001C01D92A231B207E1F70E9445
:1001300026010C9404020C9400001092C50080E18A
:100140008093C400E0ECF0E080818260808386E0F0
:100150008093C20088E08093C1000895109203024A
:1001600081E080930D02109204021092020210921C
:100170001002E5E0F2E08EE591E09183808381E971
:1001800091E09383828383E791E0958384838BE876
:1001900091E09783868384B5826584BD85B5886048
:1001A00085BD88E187BD88BD9D9A279A2F980B9AB7
:1001B0001398E0E8F0E080818264808384EA90E034
:1001C000909389008093880080B7836080BFEBE7BD
:1001D000F0E0808180648083EAE7F0E080818F77BF
:1001E0008083ECE7F0E080818160808378940895DB
:1001F00080910302813031F0B0F0823041F08330E1
:1002000069F0089580910402813069F40EC08091F4
:100210000E02823061F0813041F40BC080910D02FA
:10022000882339F004C081E0089582E0089583E0D6
:10023000089580E00895E0910302F0E0EE0FFF1FC3
:10024000EB5FFD4F0190F081E02D19940E94AE000C
:100250000E949D000E94F800809303020E941B01EF
:10026000F9CF1F920F920FB60F9211240BB60F9277
:100270008F93EF93FF93EFE6F0E080818D7F808393
:1002800080B7877780BFE1E8F0E08081887F808356
:100290001092100281E080930F02FF91EF918F91F5
:1002A0000F900BBE0F900FBE0F901F90189590915E
:1002B000C00095FFFCCF8093C6000895EFE6F0E004
:1002C00080818D7F808380B7877F80BF89E40E9493
:1002D000570181E080930D021092040210920F02E8
:1002E00010920202089580910F02813049F48093A8
:1002F0000E0284E50E945701809184000C945701FE
:1003000080910202813031F482E50E94570182E03F
:1003100080930E02089583E40E94570110920D020B
:10032000089583E50E9457011092110210920E0267
:1003300081E08093040280916F00826080936F005F
:1003400080B7886880BF16BC109284001092850028
:10035000279A139885B5826085BD8091810085605C
:1003600080938100809184008330E0F385B5887F9D
:1003700085BD2798139A08951F920F920FB60F927A
:1003800011240BB60F922F933F934F935F936F936C
:100390007F938F939F93AF93BF93EF93FF9380913E
:1003A00010028F5F8093100287E50E9457018091B1
:1003B00010028430B0F080916F008D7F80936F00C9
:1003C00080B7877780BF80918100887F809381008C
:1003D00081E0809302028091840080930002109259
:1003E0001002FF91EF91BF91AF919F918F917F91FB
:1003F0006F915F914F913F912F910F900BBE0F9096
:0C0400000FBE0F901F901895F894FFCFCE
:02040C0061008D
:00000001FF
