:100000000C9434000C9451000C9451000C94510049
:100010000C9451000C9451000C9451000C9451001C
:100020000C9451000C9451000C9451000C94E40079
:100030000C9451000C9451000C9451000C945100FC
:100040000C9451000C9451000C9451000C945100EC
:100050000C9451000C9451000C9451000C94030129
:100060000C9451000C94510011241FBECFEFD8E026
:10007000DEBFCDBF11E0A0E0B1E0E4E2F3E002C0FA
:1000800005900D92A230B107D9F721E0A2E0B1E0CE
:1000900001C01D92A431B207E1F70E94D9000C946F
:1000A00090010C940000EFE6F0E080818D7F80836A
:1000B00081E080930D0110920401109210010895C7
:1000C0001092C50087E68093C400E0ECF0E08081E8
:1000D0008D7F808386E08093C20088E08093C1009A
:1000E00008951092030181E080930D0110920401A4
:1000F0001092020110920F01E5E0F1E083E590E03B
:100100009183808387E691E09383828387E391E004
:100110009583848383E591E09783868384B58265A4
:1001200084BD85E187BD88BD559A2798209A289877
:1001300080E89AE19093890080938800E1E8F0E0FC
:100140008081886080838BE080BF82E080936F0035
:100150007894219A089580910301813031F0B0F0B4
:10016000823041F0833069F008958091040181303C
:1001700069F40EC080910E01823061F0813041F44B
:100180000BC080910D01882339F004C081E00895EF
:1001900082E0089583E0089580E00895E0910301EE
:1001A000F0E0EE0FFF1FEB5FFE4F0190F081E02DBE
:1001B00009940E9471000E9460000E94AB0080932D
:1001C00003010E94CE00F9CF1F920F920FB60F923B
:1001D00011248F93EF93FF93EFE6F0E080818D7F02
:1001E0008083E1E8F0E08081887F808310920F01B6
:1001F00081E080931001FF91EF918F910F900FBEDE
:100200000F901F9018951F920F920FB60F92112406
:100210008F939F938091840090918500813A9105FE
:1002200048F080910F018F5F80930F0195B182E0BC
:10023000892785B980910F01833059F481E080933B
:100240000201809184009091850090931301809326
:1002500012019F918F910F900FBE0F901F901895D4
:100260009091C00095FFFCCF8093C600089580B7A1
:10027000886080BF80911001813041F480930E012D
:100280008FEF0E9430018FEF0C94300180910201BA
:10029000813041F480B7877F80BF1092020182E0F5
:1002A00080930E01089580911001813079F480913E
:1002B0001201909113010E943001809112019091DE
:1002C0001301892F0E94300110920D0108951092A0
:1002D000110110920E0181E08093040183E50E94D8
:1002E000300180916F00826080936F0016BC109285
:1002F000850010928400559A289A85B5826085BD44
:10030000809181008360809381002898809184008F
:100310008D32E0F385B5887F85BD5598299808957D
:04032000F894FFCF7F
:02032400610076
:00000001FF
