:100000000C9434000C9451000C9451000C94510049
:100010000C9451000C9451000C9451000C9451001C
:100020000C9451000C9451000C9451000C94D90084
:100030000C9451000C9451000C9451000C945100FC
:100040000C9451000C9451000C9451000C945100EC
:100050000C9451000C9451000C9451000C94FB0032
:100060000C9451000C94510011241FBECFEFD8E026
:10007000DEBFCDBF11E0A0E0B1E0EEE1F3E002C0F1
:1000800005900D92A230B107D9F721E0A2E0B1E0CE
:1000900001C01D92A331B207E1F70E94CE000C947B
:1000A0008D010C9400001092C50087E68093C40077
:1000B000E0ECF0E080818D7F808386E08093C20059
:1000C00088E08093C10008951092030181E080933D
:1000D0000D01109204011092020110921001E5E04E
:1000E000F1E084E291E09183808382E691E0938362
:1000F000828384E391E09583848384E591E0978310
:10010000868384B5826584BD85B5886085BD88E1B8
:1001100087BD88BD559A2798209A2898E0E8F0E096
:100120008081826480838FEF8093880080E1809358
:1001300089008BE080BF82E080936F0078940895FF
:1001400080910301813031F0B0F0823041F0833092
:1001500069F0089580910401813069F40EC08091A6
:100160000E01823061F0813041F40BC080910D01AD
:10017000882339F004C081E0089582E0089583E087
:10018000089580E00895E0910301F0E0EE0FFF1F75
:10019000EB5FFE4F0190F081E02D09940E94640016
:1001A0000E9453000E94A000809303010E94C3009C
:1001B000F9CF1F920F920FB60F9211248F93EF93E6
:1001C000FF93EFE6F0E080818D7F808380B7877FAB
:1001D00080BFE1E8F0E08081887F80831092100189
:1001E00081E080930F01FF91EF918F910F900FBEEF
:1001F0000F901F9018951F920F920FB60F92112417
:100200008F9380918400893228F0809110018F5F54
:1002100080931001809110018A3049F481E080932D
:1002200002018091840080930001109210018F914F
:100230000F900FBE0F901F9018959091C00095FFE2
:10024000FCCF8093C6000895EFE6F0E080818D7FBB
:10025000808389E40E941D0181E080930D0110924A
:10026000040110920F01089580B7886080BF8091CB
:100270000F01813061F480930E018FEF0E941D0108
:1002800084E50E941D01809184000C941D018091E1
:100290000201813041F482E50E941D0110920201A9
:1002A00082E080930E01089583E40E941D018091F5
:1002B0000F01813031F4809100010E941D011092E4
:1002C0000D01089583E50E941D0110921201109204
:1002D0000E0181E08093040180916F008260809321
:1002E0006F0080B7877F80BF16BC10928400109289
:1002F0008500559A289A85B5826085BD80918100D8
:100300008560809381002898809184008430E0F398
:0E03100085B5887F85BD55980895F894FFCF78
:02031E0061007C
:00000001FF
