:100000000C9434000C9446000C9446000C9446006A
:100010000C9446000C9446000C9446000C94460048
:100020000C9446000C9446000C9446000C94460038
:100030000C9446000C9446000C9446000C94460028
:100040000C9446000C9446000C9446000C94460018
:100050000C9446000C9446000C9446000C944F00FF
:100060000C9446000C94460011241FBECFEFD8E03C
:10007000DEBFCDBF21E0A0E0B1E001C01D92A13004
:10008000B207E1F70E9482000C9496000C940000E5
:1000900083E080937F008AE880BF789408951F9260
:1000A0000F920FB60F9211248F9380B7857031F0A5
:1000B00081E08093000180B78E7F05C081E080934E
:1000C000000180B7816080BF8F910F900FBE0F90AD
:1000D0001F9018959091C00095FFFCCF8093C600AB
:1000E00008951092C50080E18093C400E0ECF0E038
:1000F00080818260808386E08093C20088E0809364
:10010000C10008950E9448000E9471008091000182
:10011000882339F081E690E00E946A001092000185
:10012000F5CF82E690E00E946A00F0CFF894FFCF0E
:00000001FF
