:1000000010C028C027C026C025C024C0C9C022C037
:1000100021C020C01FC01EC0D9C01CC01BC01AC038
:1000200019C011241FBECFEDCDBF10E0A0E6B0E097
:10003000E4E0F2E002C005900D92A036B107D9F7D6
:1000400020E0A0E6B0E001C01D92A137B207E1F7C1
:10005000A1D0D6C0D5CF619881E080936B0010927B
:10006000620010926E000895439A80916E00813074
:1000700039F080916000813029F41092600082E0B4
:1000800080936C00089580916E00813011F410927D
:100090006B0008951092700010926C0081E08093C4
:1000A0006200619A439A12BE1CBC1DBCBA9AD79AD0
:1000B000DB9883B7816083BF8EB583608EBD8CB5BE
:1000C0008330E8F3DB9A83B7887F83BFBA98D798E9
:1000D00008951092610081E080936B00109262009D
:1000E0001092600010926D00E3E6F0E08BE290E089
:1000F000918380838AE490E09383828384E390E019
:100100009583848383E490E09783868380B78265B8
:1001100080BF8BE086BF8CBFD79ABA9AD298D39A09
:10012000DB989FB592649FBD94EA9ABD1BBC88B9C9
:1001300082E08CB97894089580916100813031F02B
:10014000B0F0823041F0833069F008958091620010
:10015000813069F40EC080916C00823061F0813092
:1001600041F40BC080916B00882339F004C081E01A
:10017000089582E0089583E0089580E00895E09175
:100180006100F0E0EE0FFF1FED59FF4F0190F0818D
:10019000E02D09949EDFD0DF80936100F0DFFBCF7C
:1001A0001F920F920FB60F9211248F93619843986C
:1001B0008EB5887F8EBD10926D0081E080936E00B9
:1001C0008F910F900FBE0F901F9018951F920F9256
:1001D0000FB60F9211248F9380916D008F5F8093E3
:1001E0006D0080916D00843028F081E08093600084
:1001F00010926D008F910F900FBE0F901F90189569
:04020000F894FFCFA0
:00000001FF
