:1000000010C01DC01CC01BC01AC019C018C017C02A
:1000100017C015C014C013C012C011C010C00FC04B
:100020000EC011241FBECFEDCDBF20E0A0E6B0E092
:1000300001C01D92A336B207E1F744D04CC0E0CF17
:100040001F920F920FB60F9211242F938F939F93AD
:10005000209162008091600090916100222319F04C
:10006000213069F015C00196909361008093600083
:100070008F3F934069F481E08093620009C001974B
:100080009093610080936000892B11F410926200BC
:1000900080916000909161009BBD8ABD9F918F917E
:1000A0002F910F900FBE0F901F9018958BE480BF7B
:1000B00087E286BF8CBF80E88ABB84E087BB83E091
:1000C00083BF0895F3DF85B7806285BF889585B7C4
:0A00D0008F7D85BFF8CFF894FFCFB5
:00000001FF
