:1000000010C01DC01CC01BC01AC019C0A6C017C09C
:1000100016C015C014C013C0B3C011C010C00FC0AB
:100020000EC011241FBECFEDCDBF20E0A0E6B0E092
:1000300001C01D92AE36B207E1F789D0BAC0E0CF59
:1000400010926D00439A1092620010926C00089515
:1000500010926B00619A12BE1DBC1CBCBA9AD79A52
:100060008EB583608EBD8CB59DB5CD97E0F3DB98E2
:1000700083B7816083BF8CB59DB5CF97E0F3DB9AE2
:1000800083B7887F83BFBA98D79880916C00882304
:10009000E1F381E0809362000895809160008130F7
:1000A00031F410926D001092600080936B000895FF
:1000B00010926100109262001092600010926D0028
:1000C000E3E6F0E080E290E09183808388E290E0D4
:1000D000938382838DE490E09583848380B78265E7
:1000E00080BF8BE086BF8CBFD79ABA9AD298D39A3A
:1000F000DB9820EA30E03BBD2ABD9EB598609EBDEE
:1001000088B982E08CB9789408958091610081303B
:1001100021F070F0823041F0089581E0909162000A
:10012000913049F480E0089580916B00813011F0A6
:1001300082E0089581E00895E0916100F0E0EE0F23
:10014000FF1FED59FF4F0190F081E02D0994B0DFC2
:10015000DCDF80936100F0DFFBCF1F920F920FB6C0
:100160000F9211248F9361988EB5887F8EBD81E0A8
:1001700080936C008F910F900FBE0F901F90189579
:100180001F920F920FB60F9211248F9380916D00E2
:100190008F5F80936D0080916D00843021F481E049
:1001A0008093600043988F910F900FBE0F901F9027
:0601B0001895F894FFCF42
:00000001FF
