:1000000010C028C027C026C025C024C0C8C022C038
:1000100021C020C01FC01EC0D8C01CC01BC01AC039
:1000200019C011241FBECFEDCDBF10E0A0E6B0E097
:10003000E2E0F2E002C005900D92A236B107D9F7D6
:1000400020E0A2E6B0E001C01D92A337B207E1F7BD
:10005000A0D0D5C0D5CF619881E080936D0010927B
:100060006400109270000895439A8091700081306E
:1000700039F080916200813029F41092620082E0B0
:1000800080936E00089580917000813011F4109279
:100090006D0008951092720010926E0081E08093BE
:1000A0006400619A439A12BE1CBC1DBCBA9AD79ACE
:1000B000DB9883B7816083BF8EB583608EBD8CB5BE
:1000C0008330E8F383B7887F83BFBA98D7980895C1
:1000D0001092630081E080936D0010926400109292
:1000E000620010926F00E5E6F0E08BE290E0918311
:1000F00080838AE490E09383828384E390E0958315
:10010000848383E490E09783868380B7826580BF91
:100110008BE086BF8CBFD79ABA9AD298D39ADB98D5
:100120009FB592649FBD94EA9ABD1BBC88B982E0DA
:100130008CB97894089580916300813031F0B0F0EB
:10014000823041F0833069F00895809164008130FD
:1001500069F40EC080916E00823061F0813041F40C
:100160000BC080916D00882339F004C081E00895B0
:1001700082E0089583E0089580E00895E0916300AF
:10018000F0E0EE0FFF1FEB59FF4F0190F081E02DE3
:1001900009949EDFD0DF80936300F0DFFBCF1F92D6
:1001A0000F920FB60F9211248F93619843988EB5DA
:1001B000887F8EBD10926F0081E0809370008F91D8
:1001C0000F900FBE0F901F9018951F920F920FB6B1
:1001D0000F9211248F9380916F008F5F80936F0037
:1001E00080916F00843028F081E08093620010924B
:1001F0006F008F910F900FBE0F901F901895F8947D
:02020000FFCF2E
:02020200610099
:00000001FF
