:1000000010C01DC01CC01BC01AC019C0BFC017C083
:1000100016C015C014C013C0CFC011C010C00FC08F
:100020000EC011241FBECFEDCDBF20E0A0E6B0E092
:1000300001C01D92A037B207E1F7A2D0D7C0E0CF30
:10004000619881E080936B001092620010926E00C4
:10005000089580916E00813011F410926B00089524
:1000600010926F0010926C0081E080936200619AA0
:1000700012BE1DBC1CBCBA9AD79ADB9883B78160AC
:1000800083BF8EB583608EBD8CB58330E8F3DB9A79
:1000900083B7887F83BFBA98D7980895439A809191
:1000A0006E00813041F080916000813031F44398DE
:1000B0001092600082E080936C00089510926100BD
:1000C00081E080936B0010926200109260001092A9
:1000D0006D00E3E6F0E080E290E09183808380E3CE
:1000E00090E0938382838EE490E09583848389E219
:1000F00090E09783868380B7826580BF8BE086BF60
:100100008CBFD79ABA9AD298D39ADB9820E031E084
:100110003BBD2ABD9EB598609EBD88B982E08CB972
:100120007894089580916100813031F0B0F0823090
:1001300041F0833069F0089580916200813069F464
:100140000EC080916C00823061F0813041F40BC0B0
:1001500080916B00882339F004C081E0089582E02B
:10016000089583E0089580E00895E0916100F0E053
:10017000EE0FFF1FED59FF4F0190F081E02D099424
:100180009DDFD0DF80936100F0DFFBCF1F920F92E5
:100190000FB60F9211248F93619843988EB5887F84
:1001A0008EBD10926D0081E080936E008F910F9054
:1001B0000FBE0F901F9018951F920F920FB60F92BF
:1001C00011248F9380916D008F5F80936D008091DB
:1001D0006D00843028F081E08093600010926D0003
:1001E0008F910F900FBE0F901F901895F894FFCF2E
:00000001FF
